{
  "contractName": "admin",
  "abi": [
    {
      "constant": true,
      "inputs": [],
      "name": "owner",
      "outputs": [
        {
          "name": "",
          "type": "address"
        }
      ],
      "payable": false,
      "stateMutability": "view",
      "type": "function"
    },
    {
      "constant": true,
      "inputs": [
        {
          "name": "",
          "type": "uint256"
        }
      ],
      "name": "roles",
      "outputs": [
        {
          "name": "description",
          "type": "string"
        },
        {
          "name": "admin",
          "type": "uint256"
        }
      ],
      "payable": false,
      "stateMutability": "view",
      "type": "function"
    },
    {
      "inputs": [],
      "payable": false,
      "stateMutability": "nonpayable",
      "type": "constructor"
    },
    {
      "anonymous": false,
      "inputs": [
        {
          "indexed": false,
          "name": "role",
          "type": "uint256"
        }
      ],
      "name": "RoleCreated",
      "type": "event"
    },
    {
      "anonymous": false,
      "inputs": [
        {
          "indexed": false,
          "name": "account",
          "type": "address"
        },
        {
          "indexed": false,
          "name": "role",
          "type": "uint256"
        }
      ],
      "name": "BearerAdded",
      "type": "event"
    },
    {
      "anonymous": false,
      "inputs": [
        {
          "indexed": false,
          "name": "account",
          "type": "address"
        },
        {
          "indexed": false,
          "name": "role",
          "type": "uint256"
        }
      ],
      "name": "BearerRemoved",
      "type": "event"
    },
    {
      "constant": false,
      "inputs": [
        {
          "name": "_roleDescription",
          "type": "string"
        },
        {
          "name": "_admin",
          "type": "uint256"
        }
      ],
      "name": "addRole",
      "outputs": [
        {
          "name": "",
          "type": "uint256"
        }
      ],
      "payable": false,
      "stateMutability": "nonpayable",
      "type": "function"
    },
    {
      "constant": true,
      "inputs": [
        {
          "name": "_account",
          "type": "address"
        },
        {
          "name": "_role",
          "type": "uint256"
        }
      ],
      "name": "hasRole",
      "outputs": [
        {
          "name": "",
          "type": "bool"
        }
      ],
      "payable": false,
      "stateMutability": "view",
      "type": "function"
    },
    {
      "constant": false,
      "inputs": [
        {
          "name": "_account",
          "type": "address"
        },
        {
          "name": "_role",
          "type": "uint256"
        }
      ],
      "name": "addBearer",
      "outputs": [],
      "payable": false,
      "stateMutability": "nonpayable",
      "type": "function"
    },
    {
      "constant": false,
      "inputs": [
        {
          "name": "_account",
          "type": "address"
        },
        {
          "name": "_role",
          "type": "uint256"
        }
      ],
      "name": "removeBearer",
      "outputs": [],
      "payable": false,
      "stateMutability": "nonpayable",
      "type": "function"
    }
  ],
  "bytecode": "0x60806040526040518061014001604052807377bda9fa7e6a74eedfc76e1d1ee2e47b0135684073ffffffffffffffffffffffffffffffffffffffff1673ffffffffffffffffffffffffffffffffffffffff168152602001730aee156f132a913ab6aba6efd23146c13787f24973ffffffffffffffffffffffffffffffffffffffff1673ffffffffffffffffffffffffffffffffffffffff16815260200173d7f6be6fb84592c7e6421cf504752b1a55a22fdc73ffffffffffffffffffffffffffffffffffffffff1673ffffffffffffffffffffffffffffffffffffffff1681526020017353479e1bdf0b892e041eadb81f041fa6b20490b773ffffffffffffffffffffffffffffffffffffffff1673ffffffffffffffffffffffffffffffffffffffff1681526020017341f410e5475a877f05d405f6be96755b09c3ed6373ffffffffffffffffffffffffffffffffffffffff1673ffffffffffffffffffffffffffffffffffffffff168152602001736a04c0ab60994989795159374b3aa6f878f2b57f73ffffffffffffffffffffffffffffffffffffffff1673ffffffffffffffffffffffffffffffffffffffff16815260200173bae2e2cd214ea0cc404a82e48e3f7006d5ec2c5b73ffffffffffffffffffffffffffffffffffffffff1673ffffffffffffffffffffffffffffffffffffffff168152602001733a16eb1c62548b76505fa1bf90dc3b25fb866f1a73ffffffffffffffffffffffffffffffffffffffff1673ffffffffffffffffffffffffffffffffffffffff168152602001733348e65cdecb1b3033668160ff5416a21ee0993373ffffffffffffffffffffffffffffffffffffffff1673ffffffffffffffffffffffffffffffffffffffff168152602001735ef977f1b098cca2706040b9c188608fa68434d473ffffffffffffffffffffffffffffffffffffffff1673ffffffffffffffffffffffffffffffffffffffff16815250600190600a6102da9291906105c4565b506040518061014001604052807377bda9fa7e6a74eedfc76e1d1ee2e47b0135684073ffffffffffffffffffffffffffffffffffffffff1673ffffffffffffffffffffffffffffffffffffffff168152602001730aee156f132a913ab6aba6efd23146c13787f24973ffffffffffffffffffffffffffffffffffffffff1673ffffffffffffffffffffffffffffffffffffffff16815260200173d7f6be6fb84592c7e6421cf504752b1a55a22fdc73ffffffffffffffffffffffffffffffffffffffff1673ffffffffffffffffffffffffffffffffffffffff1681526020017353479e1bdf0b892e041eadb81f041fa6b20490b773ffffffffffffffffffffffffffffffffffffffff1673ffffffffffffffffffffffffffffffffffffffff1681526020017341f410e5475a877f05d405f6be96755b09c3ed6373ffffffffffffffffffffffffffffffffffffffff1673ffffffffffffffffffffffffffffffffffffffff168152602001736a04c0ab60994989795159374b3aa6f878f2b57f73ffffffffffffffffffffffffffffffffffffffff1673ffffffffffffffffffffffffffffffffffffffff16815260200173bae2e2cd214ea0cc404a82e48e3f7006d5ec2c5b73ffffffffffffffffffffffffffffffffffffffff1673ffffffffffffffffffffffffffffffffffffffff168152602001733a16eb1c62548b76505fa1bf90dc3b25fb866f1a73ffffffffffffffffffffffffffffffffffffffff1673ffffffffffffffffffffffffffffffffffffffff168152602001733348e65cdecb1b3033668160ff5416a21ee0993373ffffffffffffffffffffffffffffffffffffffff1673ffffffffffffffffffffffffffffffffffffffff168152602001735ef977f1b098cca2706040b9c188608fa68434d473ffffffffffffffffffffffffffffffffffffffff1673ffffffffffffffffffffffffffffffffffffffff16815250600c90600a6105b19291906105c4565b503480156105be57600080fd5b50610684565b82600a8101928215610630579160200282015b8281111561062f5782518260006101000a81548173ffffffffffffffffffffffffffffffffffffffff021916908373ffffffffffffffffffffffffffffffffffffffff160217905550916020019190600101906105d7565b5b50905061063d9190610641565b5090565b61068191905b8082111561067d57600081816101000a81549073ffffffffffffffffffffffffffffffffffffffff021916905550600101610647565b5090565b90565b610eed806106936000396000f3fe608060405234801561001057600080fd5b50600436106100625760003560e01c80635c97f4a21461006757806380fce6a5146100cd5780638da5cb5b1461011b578063a02be77114610165578063bfda4a491461023e578063e65cd6e3146102ec575b600080fd5b6100b36004803603604081101561007d57600080fd5b81019080803573ffffffffffffffffffffffffffffffffffffffff1690602001909291908035906020019092919050505061033a565b604051808215151515815260200191505060405180910390f35b610119600480360360408110156100e357600080fd5b81019080803573ffffffffffffffffffffffffffffffffffffffff16906020019092919080359060200190929190505050610473565b005b610123610672565b604051808273ffffffffffffffffffffffffffffffffffffffff1673ffffffffffffffffffffffffffffffffffffffff16815260200191505060405180910390f35b6102286004803603604081101561017b57600080fd5b810190808035906020019064010000000081111561019857600080fd5b8201836020820111156101aa57600080fd5b803590602001918460018302840111640100000000831117156101cc57600080fd5b91908080601f016020809104026020016040519081016040528093929190818152602001838380828437600081840152601f19601f82011690508083019250505050505050919291929080359060200190929190505050610697565b6040518082815260200191505060405180910390f35b61026a6004803603602081101561025457600080fd5b8101908080359060200190929190505050610910565b6040518080602001838152602001828103825284818151815260200191508051906020019080838360005b838110156102b0578082015181840152602081019050610295565b50505050905090810190601f1680156102dd5780820380516001836020036101000a031916815260200191505b50935050505060405180910390f35b6103386004803603604081101561030257600080fd5b81019080803573ffffffffffffffffffffffffffffffffffffffff169060200190929190803590602001909291905050506109d9565b005b6000600b805490508210610351576000905061046d565b6060600b838154811061036057fe5b90600052602060002090600302016002018054806020026020016040519081016040528092919081815260200182805480156103f157602002820191906000526020600020905b8160009054906101000a900473ffffffffffffffffffffffffffffffffffffffff1673ffffffffffffffffffffffffffffffffffffffff16815260200190600101908083116103a7575b5050505050905060008090505b8151811015610466578473ffffffffffffffffffffffffffffffffffffffff1682828151811061042a57fe5b602002602001015173ffffffffffffffffffffffffffffffffffffffff1614156104595760019250505061046d565b80806001019150506103fe565b5060009150505b92915050565b600b8054905081106104ed576040517f08c379a00000000000000000000000000000000000000000000000000000000081526004018080602001828103825260138152602001807f526f6c6520646f65736e27742065786973742e0000000000000000000000000081525060200191505060405180910390fd5b61051533600b83815481106104fe57fe5b90600052602060002090600302016001015461033a565b61056a576040517f08c379a0000000000000000000000000000000000000000000000000000000008152600401808060200182810382526023815260200180610e796023913960400191505060405180910390fd5b60001515610578838361033a565b1515141561066e57600b818154811061058d57fe5b90600052602060002090600302016002018290806001815401808255809150509060018203906000526020600020016000909192909190916101000a81548173ffffffffffffffffffffffffffffffffffffffff021916908373ffffffffffffffffffffffffffffffffffffffff160217905550507fd81f2841f8b3997e1937995d307db36db75c385165bbad7916db26732d8ccb178282604051808373ffffffffffffffffffffffffffffffffffffffff1673ffffffffffffffffffffffffffffffffffffffff1681526020018281526020019250505060405180910390a15b5050565b6000809054906101000a900473ffffffffffffffffffffffffffffffffffffffff1681565b6000600b80549050821115610714576040517f08c379a00000000000000000000000000000000000000000000000000000000081526004018080602001828103825260198152602001807f41646d696e20726f6c6520646f65736e27742065786973742e0000000000000081525060200191505060405180910390fd5b60006001600b604051806060016040528087815260200186815260200160006040519080825280602002602001820160405280156107615781602001602082028038833980820191505090505b508152509080600181540180825580915050906001820390600052602060002090600302016000909192909190915060008201518160000190805190602001906107ac929190610d06565b506020820151816001015560408201518160020190805190602001906107d3929190610d86565b5050500390507f5ae7bf8c4c39be741ec8e27386e1453106504ca4b4351e28065a5ca97415d430816040518082815260200191505060405180910390a18083141561090657600b818154811061082557fe5b90600052602060002090600302016002013390806001815401808255809150509060018203906000526020600020016000909192909190916101000a81548173ffffffffffffffffffffffffffffffffffffffff021916908373ffffffffffffffffffffffffffffffffffffffff160217905550507fd81f2841f8b3997e1937995d307db36db75c385165bbad7916db26732d8ccb173382604051808373ffffffffffffffffffffffffffffffffffffffff1673ffffffffffffffffffffffffffffffffffffffff1681526020018281526020019250505060405180910390a15b8091505092915050565b600b818154811061091d57fe5b9060005260206000209060030201600091509050806000018054600181600116156101000203166002900480601f0160208091040260200160405190810160405280929190818152602001828054600181600116156101000203166002900480156109c95780601f1061099e576101008083540402835291602001916109c9565b820191906000526020600020905b8154815290600101906020018083116109ac57829003601f168201915b5050505050908060010154905082565b600b805490508110610a53576040517f08c379a00000000000000000000000000000000000000000000000000000000081526004018080602001828103825260138152602001807f526f6c6520646f65736e27742065786973742e0000000000000000000000000081525060200191505060405180910390fd5b610a7b33600b8381548110610a6457fe5b90600052602060002090600302016001015461033a565b610ad0576040517f08c379a0000000000000000000000000000000000000000000000000000000008152600401808060200182810382526026815260200180610e9c6026913960400191505060405180910390fd5b6060600b8281548110610adf57fe5b9060005260206000209060030201600201805480602002602001604051908101604052809291908181526020018280548015610b7057602002820191906000526020600020905b8160009054906101000a900473ffffffffffffffffffffffffffffffffffffffff1673ffffffffffffffffffffffffffffffffffffffff1681526020019060010190808311610b26575b5050505050905060008090505b8151811015610d00578373ffffffffffffffffffffffffffffffffffffffff16828281518110610ba957fe5b602002602001015173ffffffffffffffffffffffffffffffffffffffff161415610cf35781600183510381518110610bdd57fe5b6020026020010151828281518110610bf157fe5b602002602001019073ffffffffffffffffffffffffffffffffffffffff16908173ffffffffffffffffffffffffffffffffffffffff1681525050600b8381548110610c3857fe5b9060005260206000209060030201600201805480610c5257fe5b6001900381819060005260206000200160006101000a81549073ffffffffffffffffffffffffffffffffffffffff021916905590557f18dd68c3b9a992261fefcaa58c659f0a628d54692027be4c0662c2365fbb819a8484604051808373ffffffffffffffffffffffffffffffffffffffff1673ffffffffffffffffffffffffffffffffffffffff1681526020018281526020019250505060405180910390a15b8080600101915050610b7d565b50505050565b828054600181600116156101000203166002900490600052602060002090601f016020900481019282601f10610d4757805160ff1916838001178555610d75565b82800160010185558215610d75579182015b82811115610d74578251825591602001919060010190610d59565b5b509050610d829190610e10565b5090565b828054828255906000526020600020908101928215610dff579160200282015b82811115610dfe5782518260006101000a81548173ffffffffffffffffffffffffffffffffffffffff021916908373ffffffffffffffffffffffffffffffffffffffff16021790555091602001919060010190610da6565b5b509050610e0c9190610e35565b5090565b610e3291905b80821115610e2e576000816000905550600101610e16565b5090565b90565b610e7591905b80821115610e7157600081816101000a81549073ffffffffffffffffffffffffffffffffffffffff021916905550600101610e3b565b5090565b9056fe55736572206e6f7420617574686f72697a656420746f2061646420626561726572732e55736572206e6f7420617574686f72697a656420746f2072656d6f766520626561726572732ea165627a7a72305820799bc2b8525ec1b483b79ffeb96f5e3404daac7a12f55bbd8e1fed0044d0da150029",
  "source": "\r\npragma solidity ^0.5.0;\r\n\r\nimport \"./right.sol\";\r\nimport \"./Migrations.sol\";\r\n\r\ncontract admin is right {\r\n    event RoleCreated(uint256 role);\r\n    event BearerAdded(address account, uint256 role);\r\n    event BearerRemoved(address account, uint256 role);\r\n    /**\r\n     * @notice A role, which will be used to group users.\r\n     * @dev The role id is its position in the roles array.\r\n     * @param description A description for the role.\r\n     * @param admin The only role that can add or remove bearers\r\n     * from this role. To have the role bearers to be also the role\r\n     * admins you should pass roles.length as the admin role.\r\n     * @param bearers Addresses belonging to this role.\r\n     */\r\n    struct Role {\r\n        string description;\r\n        uint256 admin;\r\n        address[] bearers;\r\n    }\r\n    /**\r\n     * @notice All roles ever created.\r\n     */\r\n    Role[] public roles;\r\n    /**\r\n     * @notice The contract constructor, empty as of now.\r\n     */\r\n    constructor() public {\r\n    }\r\n    /**\r\n     * @notice Create a new role.\r\n     * @dev If the _admin parameter is the id of the newly created\r\n     * role msg.sender is added to it automatically.\r\n     * @param _roleDescription The description of the role being \r\n     * created.\r\n     * @param _admin The role that is allowed to add and remove \r\n     * bearers from the role being created.\r\n     * @return The role id.\r\n     */\r\n\r\n    \r\n    address[10] accounts =\r\n    [ 0x77bDa9fA7e6a74eeDfc76E1D1ee2E47B01356840,\r\n    0x0Aee156F132a913AB6aBA6Efd23146c13787f249,\r\n    0xD7f6bE6fb84592c7E6421cf504752B1A55a22FDc,\r\n    0x53479e1BDF0B892E041eAdb81F041fA6b20490B7,\r\n    0x41F410E5475A877f05d405f6be96755b09C3eD63,\r\n    0x6A04C0ab60994989795159374B3Aa6F878f2b57F,\r\n    0xBAE2E2cd214ea0cC404A82E48e3f7006d5ec2C5B,\r\n    0x3a16Eb1C62548b76505fA1bf90DC3B25FB866f1A,\r\n    0x3348e65CDECb1b3033668160fF5416a21Ee09933,\r\n    0x5EF977f1B098cca2706040B9c188608FA68434d4 ];\r\n\r\n    modifier rightOnly(){\r\n        if(msg.sender != accounts[0]) _;\r\n    }\r\n\r\n    function addRole(string memory _roleDescription,uint256 _admin) public returns(uint256)\r\n    {\r\n        require(_admin <= roles.length,\"Admin role doesn't exist.\");\r\n        uint256 role = roles.push(\r\n            Role({\r\n                description: _roleDescription,\r\n                admin: _admin,\r\n                bearers: new address[](0)\r\n            })\r\n        ) - 1;\r\n        emit RoleCreated(role);\r\n        if (_admin == role) {\r\n            roles[role].bearers.push(msg.sender);\r\n            emit BearerAdded(msg.sender, role);\r\n        }\r\n        return role;\r\n    }\r\n    /**\r\n     * @notice Verify whether an address is a bearer of a role\r\n     * @param _account The account to verify.\r\n     * @param _role The role to look into.\r\n     * @return Whether the account is a bearer of the role.\r\n     */\r\n    function hasRole(address _account,uint256 _role)\r\n        public\r\n        view\r\n        returns(bool)\r\n    {\r\n        if (_role >= roles.length ) return false;\r\n            address[] memory _bearers = roles[_role].bearers;\r\n            for (uint256 i = 0; i < _bearers.length; i++){\r\n                if (_bearers[i] == _account) return true;\r\n            }\r\n        return false;\r\n    }\r\n    /**\r\n     * @notice Add a bearer to a role\r\n     * @param _account The address to add as a bearer.\r\n     * @param _role The role to add the bearer to.\r\n     */\r\n    function addBearer(address _account,uint256 _role) public {\r\n        require(_role < roles.length,\"Role doesn't exist.\");\r\n        require(\r\n            hasRole(msg.sender, roles[_role].admin),\r\n            \"User not authorized to add bearers.\"\r\n        );\r\n        if (hasRole(_account, _role) == false){\r\n            roles[_role].bearers.push(_account);\r\n            emit BearerAdded(_account, _role);\r\n        }\r\n    }\r\n    /**\r\n     * @notice Remove a bearer from a role\r\n     * @param _account The address to remove as a bearer.\r\n     * @param _role The role to remove the bearer from.\r\n     */\r\n    function removeBearer(address _account,uint256 _role) public \r\n{\r\n        require(_role < roles.length,\"Role doesn't exist.\");\r\n        require(hasRole(msg.sender, roles[_role].admin),\"User not authorized to remove bearers.\");\r\n        address[] memory _bearers = roles[_role].bearers;\r\n        for (uint256 i = 0; i < _bearers.length; i++){\r\n            if (_bearers[i] == _account){\r\n                _bearers[i] = _bearers[_bearers.length - 1];\r\n                roles[_role].bearers.pop();\r\n                emit BearerRemoved(_account, _role);\r\n            }\r\n        }\r\n    }\r\n}",
  "sourcePath": "C:\\Users\\MIQI\\Desktop\\realSupplyRemixed\\contracts\\admin.sol",
  "compiler": {
    "name": "solc",
    "version": "0.5.8+commit.23d335f2.Emscripten.clang"
  },
  "schemaVersion": "3.0.11",
  "updatedAt": "2019-07-23T16:38:10.788Z",
  "devdoc": {
    "methods": {
      "addBearer(address,uint256)": {
        "params": {
          "_account": "The address to add as a bearer.\r",
          "_role": "The role to add the bearer to.\r"
        }
      },
      "hasRole(address,uint256)": {
        "params": {
          "_account": "The account to verify.\r",
          "_role": "The role to look into.\r"
        },
        "return": "Whether the account is a bearer of the role.\r"
      },
      "removeBearer(address,uint256)": {
        "params": {
          "_account": "The address to remove as a bearer.\r",
          "_role": "The role to remove the bearer from.\r"
        }
      }
    }
  },
  "userdoc": {
    "methods": {
      "addBearer(address,uint256)": {
        "notice": "Add a bearer to a role\r"
      },
      "constructor": "The contract constructor, empty as of now.\r",
      "hasRole(address,uint256)": {
        "notice": "Verify whether an address is a bearer of a role\r"
      },
      "removeBearer(address,uint256)": {
        "notice": "Remove a bearer from a role\r"
      }
    }
  }
}