{
  "contractName": "right",
  "abi": [
    {
      "constant": true,
      "inputs": [],
      "name": "owner",
      "outputs": [
        {
          "name": "",
          "type": "address"
        }
      ],
      "payable": false,
      "stateMutability": "view",
      "type": "function"
    }
  ],
  "bytecode": "0x60806040526040518061014001604052807377bda9fa7e6a74eedfc76e1d1ee2e47b0135684073ffffffffffffffffffffffffffffffffffffffff1673ffffffffffffffffffffffffffffffffffffffff168152602001730aee156f132a913ab6aba6efd23146c13787f24973ffffffffffffffffffffffffffffffffffffffff1673ffffffffffffffffffffffffffffffffffffffff16815260200173d7f6be6fb84592c7e6421cf504752b1a55a22fdc73ffffffffffffffffffffffffffffffffffffffff1673ffffffffffffffffffffffffffffffffffffffff1681526020017353479e1bdf0b892e041eadb81f041fa6b20490b773ffffffffffffffffffffffffffffffffffffffff1673ffffffffffffffffffffffffffffffffffffffff1681526020017341f410e5475a877f05d405f6be96755b09c3ed6373ffffffffffffffffffffffffffffffffffffffff1673ffffffffffffffffffffffffffffffffffffffff168152602001736a04c0ab60994989795159374b3aa6f878f2b57f73ffffffffffffffffffffffffffffffffffffffff1673ffffffffffffffffffffffffffffffffffffffff16815260200173bae2e2cd214ea0cc404a82e48e3f7006d5ec2c5b73ffffffffffffffffffffffffffffffffffffffff1673ffffffffffffffffffffffffffffffffffffffff168152602001733a16eb1c62548b76505fa1bf90dc3b25fb866f1a73ffffffffffffffffffffffffffffffffffffffff1673ffffffffffffffffffffffffffffffffffffffff168152602001733348e65cdecb1b3033668160ff5416a21ee0993373ffffffffffffffffffffffffffffffffffffffff1673ffffffffffffffffffffffffffffffffffffffff168152602001735ef977f1b098cca2706040b9c188608fa68434d473ffffffffffffffffffffffffffffffffffffffff1673ffffffffffffffffffffffffffffffffffffffff16815250600190600a6102da9291906102ed565b503480156102e757600080fd5b506103ad565b82600a8101928215610359579160200282015b828111156103585782518260006101000a81548173ffffffffffffffffffffffffffffffffffffffff021916908373ffffffffffffffffffffffffffffffffffffffff16021790555091602001919060010190610300565b5b509050610366919061036a565b5090565b6103aa91905b808211156103a657600081816101000a81549073ffffffffffffffffffffffffffffffffffffffff021916905550600101610370565b5090565b90565b60c6806103bb6000396000f3fe6080604052348015600f57600080fd5b506004361060285760003560e01c80638da5cb5b14602d575b600080fd5b60336075565b604051808273ffffffffffffffffffffffffffffffffffffffff1673ffffffffffffffffffffffffffffffffffffffff16815260200191505060405180910390f35b6000809054906101000a900473ffffffffffffffffffffffffffffffffffffffff168156fea165627a7a72305820538dbb85874575e45a17d39602f830c306a7156a971c3473e845b2b4f4b523960029",
  "source": "pragma solidity ^0.5.0;\r\n\r\ncontract right {\r\n\r\n    address public owner;\r\n\r\n\r\n    address[10] accounts =\r\n    [ 0x77bDa9fA7e6a74eeDfc76E1D1ee2E47B01356840,\r\n    0x0Aee156F132a913AB6aBA6Efd23146c13787f249,\r\n    0xD7f6bE6fb84592c7E6421cf504752B1A55a22FDc,\r\n    0x53479e1BDF0B892E041eAdb81F041fA6b20490B7,\r\n    0x41F410E5475A877f05d405f6be96755b09C3eD63,\r\n    0x6A04C0ab60994989795159374B3Aa6F878f2b57F,\r\n    0xBAE2E2cd214ea0cC404A82E48e3f7006d5ec2C5B,\r\n    0x3a16Eb1C62548b76505fA1bf90DC3B25FB866f1A,\r\n    0x3348e65CDECb1b3033668160fF5416a21Ee09933,\r\n    0x5EF977f1B098cca2706040B9c188608FA68434d4 ];\r\n}",
  "sourcePath": "C:\\Users\\MIQI\\Desktop\\realSupplyRemixed\\contracts\\right.sol",
  "compiler": {
    "name": "solc",
    "version": "0.5.8+commit.23d335f2.Emscripten.clang"
  },
  "schemaVersion": "3.0.11",
  "updatedAt": "2019-07-23T16:38:10.794Z",
  "devdoc": {
    "methods": {}
  },
  "userdoc": {
    "methods": {}
  }
}