{
  "contractName": "supplyChain",
  "abi": [
    {
      "constant": false,
      "inputs": [
        {
          "name": "new_address",
          "type": "address"
        }
      ],
      "name": "upgrade",
      "outputs": [],
      "payable": false,
      "stateMutability": "nonpayable",
      "type": "function"
    },
    {
      "constant": true,
      "inputs": [
        {
          "name": "",
          "type": "uint256"
        }
      ],
      "name": "lastSteps",
      "outputs": [
        {
          "name": "",
          "type": "uint256"
        }
      ],
      "payable": false,
      "stateMutability": "view",
      "type": "function"
    },
    {
      "constant": true,
      "inputs": [],
      "name": "last_completed_migration",
      "outputs": [
        {
          "name": "",
          "type": "uint256"
        }
      ],
      "payable": false,
      "stateMutability": "view",
      "type": "function"
    },
    {
      "constant": true,
      "inputs": [
        {
          "name": "_account",
          "type": "address"
        },
        {
          "name": "_role",
          "type": "uint256"
        }
      ],
      "name": "hasRole",
      "outputs": [
        {
          "name": "",
          "type": "bool"
        }
      ],
      "payable": false,
      "stateMutability": "view",
      "type": "function"
    },
    {
      "constant": true,
      "inputs": [],
      "name": "totalSteps",
      "outputs": [
        {
          "name": "",
          "type": "uint256"
        }
      ],
      "payable": false,
      "stateMutability": "view",
      "type": "function"
    },
    {
      "constant": true,
      "inputs": [
        {
          "name": "",
          "type": "uint256"
        }
      ],
      "name": "steps",
      "outputs": [
        {
          "name": "creator",
          "type": "address"
        },
        {
          "name": "product_id",
          "type": "uint256"
        },
        {
          "name": "name_of_company",
          "type": "string"
        },
        {
          "name": "name_of_product",
          "type": "string"
        },
        {
          "name": "quantity_of_product",
          "type": "string"
        },
        {
          "name": "stage",
          "type": "string"
        }
      ],
      "payable": false,
      "stateMutability": "view",
      "type": "function"
    },
    {
      "constant": false,
      "inputs": [
        {
          "name": "_account",
          "type": "address"
        },
        {
          "name": "_role",
          "type": "uint256"
        }
      ],
      "name": "addBearer",
      "outputs": [],
      "payable": false,
      "stateMutability": "nonpayable",
      "type": "function"
    },
    {
      "constant": true,
      "inputs": [],
      "name": "owner",
      "outputs": [
        {
          "name": "",
          "type": "address"
        }
      ],
      "payable": false,
      "stateMutability": "view",
      "type": "function"
    },
    {
      "constant": false,
      "inputs": [
        {
          "name": "_roleDescription",
          "type": "string"
        },
        {
          "name": "_admin",
          "type": "uint256"
        }
      ],
      "name": "addRole",
      "outputs": [
        {
          "name": "",
          "type": "uint256"
        }
      ],
      "payable": false,
      "stateMutability": "nonpayable",
      "type": "function"
    },
    {
      "constant": true,
      "inputs": [
        {
          "name": "",
          "type": "uint256"
        }
      ],
      "name": "roles",
      "outputs": [
        {
          "name": "description",
          "type": "string"
        },
        {
          "name": "admin",
          "type": "uint256"
        }
      ],
      "payable": false,
      "stateMutability": "view",
      "type": "function"
    },
    {
      "constant": false,
      "inputs": [
        {
          "name": "_account",
          "type": "address"
        },
        {
          "name": "_role",
          "type": "uint256"
        }
      ],
      "name": "removeBearer",
      "outputs": [],
      "payable": false,
      "stateMutability": "nonpayable",
      "type": "function"
    },
    {
      "constant": false,
      "inputs": [
        {
          "name": "completed",
          "type": "uint256"
        }
      ],
      "name": "setCompleted",
      "outputs": [],
      "payable": false,
      "stateMutability": "nonpayable",
      "type": "function"
    },
    {
      "anonymous": false,
      "inputs": [
        {
          "indexed": false,
          "name": "step",
          "type": "uint256"
        }
      ],
      "name": "StepCreated",
      "type": "event"
    },
    {
      "anonymous": false,
      "inputs": [
        {
          "indexed": false,
          "name": "role",
          "type": "uint256"
        }
      ],
      "name": "RoleCreated",
      "type": "event"
    },
    {
      "anonymous": false,
      "inputs": [
        {
          "indexed": false,
          "name": "account",
          "type": "address"
        },
        {
          "indexed": false,
          "name": "role",
          "type": "uint256"
        }
      ],
      "name": "BearerAdded",
      "type": "event"
    },
    {
      "anonymous": false,
      "inputs": [
        {
          "indexed": false,
          "name": "account",
          "type": "address"
        },
        {
          "indexed": false,
          "name": "role",
          "type": "uint256"
        }
      ],
      "name": "BearerRemoved",
      "type": "event"
    },
    {
      "constant": false,
      "inputs": [
        {
          "name": "_name_of_company",
          "type": "string"
        },
        {
          "name": "_name_of_product",
          "type": "string"
        },
        {
          "name": "_quantity_of_product",
          "type": "string"
        },
        {
          "name": "_product_id",
          "type": "uint256"
        },
        {
          "name": "_precedents",
          "type": "uint256[]"
        },
        {
          "name": "_stage",
          "type": "string"
        }
      ],
      "name": "newStep",
      "outputs": [
        {
          "name": "",
          "type": "uint256"
        }
      ],
      "payable": false,
      "stateMutability": "nonpayable",
      "type": "function"
    },
    {
      "constant": true,
      "inputs": [
        {
          "name": "_step",
          "type": "uint256"
        }
      ],
      "name": "isLastStep",
      "outputs": [
        {
          "name": "",
          "type": "bool"
        }
      ],
      "payable": false,
      "stateMutability": "view",
      "type": "function"
    },
    {
      "constant": true,
      "inputs": [
        {
          "name": "_step",
          "type": "uint256"
        },
        {
          "name": "_product_id",
          "type": "uint256"
        }
      ],
      "name": "getprecedents",
      "outputs": [
        {
          "name": "",
          "type": "uint256[]"
        },
        {
          "name": "",
          "type": "uint256"
        },
        {
          "name": "",
          "type": "string"
        },
        {
          "name": "",
          "type": "string"
        },
        {
          "name": "",
          "type": "string"
        },
        {
          "name": "",
          "type": "string"
        }
      ],
      "payable": false,
      "stateMutability": "view",
      "type": "function"
    }
  ],
  "bytecode": "0x60806040526040518061014001604052807377bda9fa7e6a74eedfc76e1d1ee2e47b0135684073ffffffffffffffffffffffffffffffffffffffff1673ffffffffffffffffffffffffffffffffffffffff168152602001730aee156f132a913ab6aba6efd23146c13787f24973ffffffffffffffffffffffffffffffffffffffff1673ffffffffffffffffffffffffffffffffffffffff16815260200173d7f6be6fb84592c7e6421cf504752b1a55a22fdc73ffffffffffffffffffffffffffffffffffffffff1673ffffffffffffffffffffffffffffffffffffffff1681526020017353479e1bdf0b892e041eadb81f041fa6b20490b773ffffffffffffffffffffffffffffffffffffffff1673ffffffffffffffffffffffffffffffffffffffff1681526020017341f410e5475a877f05d405f6be96755b09c3ed6373ffffffffffffffffffffffffffffffffffffffff1673ffffffffffffffffffffffffffffffffffffffff168152602001736a04c0ab60994989795159374b3aa6f878f2b57f73ffffffffffffffffffffffffffffffffffffffff1673ffffffffffffffffffffffffffffffffffffffff16815260200173bae2e2cd214ea0cc404a82e48e3f7006d5ec2c5b73ffffffffffffffffffffffffffffffffffffffff1673ffffffffffffffffffffffffffffffffffffffff168152602001733a16eb1c62548b76505fa1bf90dc3b25fb866f1a73ffffffffffffffffffffffffffffffffffffffff1673ffffffffffffffffffffffffffffffffffffffff168152602001733348e65cdecb1b3033668160ff5416a21ee0993373ffffffffffffffffffffffffffffffffffffffff1673ffffffffffffffffffffffffffffffffffffffff168152602001735ef977f1b098cca2706040b9c188608fa68434d473ffffffffffffffffffffffffffffffffffffffff1673ffffffffffffffffffffffffffffffffffffffff16815250600390600a620002dc929190620005fc565b506040518061014001604052807377bda9fa7e6a74eedfc76e1d1ee2e47b0135684073ffffffffffffffffffffffffffffffffffffffff1673ffffffffffffffffffffffffffffffffffffffff168152602001730aee156f132a913ab6aba6efd23146c13787f24973ffffffffffffffffffffffffffffffffffffffff1673ffffffffffffffffffffffffffffffffffffffff16815260200173d7f6be6fb84592c7e6421cf504752b1a55a22fdc73ffffffffffffffffffffffffffffffffffffffff1673ffffffffffffffffffffffffffffffffffffffff1681526020017353479e1bdf0b892e041eadb81f041fa6b20490b773ffffffffffffffffffffffffffffffffffffffff1673ffffffffffffffffffffffffffffffffffffffff1681526020017341f410e5475a877f05d405f6be96755b09c3ed6373ffffffffffffffffffffffffffffffffffffffff1673ffffffffffffffffffffffffffffffffffffffff168152602001736a04c0ab60994989795159374b3aa6f878f2b57f73ffffffffffffffffffffffffffffffffffffffff1673ffffffffffffffffffffffffffffffffffffffff16815260200173bae2e2cd214ea0cc404a82e48e3f7006d5ec2c5b73ffffffffffffffffffffffffffffffffffffffff1673ffffffffffffffffffffffffffffffffffffffff168152602001733a16eb1c62548b76505fa1bf90dc3b25fb866f1a73ffffffffffffffffffffffffffffffffffffffff1673ffffffffffffffffffffffffffffffffffffffff168152602001733348e65cdecb1b3033668160ff5416a21ee0993373ffffffffffffffffffffffffffffffffffffffff1673ffffffffffffffffffffffffffffffffffffffff168152602001735ef977f1b098cca2706040b9c188608fa68434d473ffffffffffffffffffffffffffffffffffffffff1673ffffffffffffffffffffffffffffffffffffffff16815250600e90600a620005b5929190620005fc565b50336000806101000a81548173ffffffffffffffffffffffffffffffffffffffff021916908373ffffffffffffffffffffffffffffffffffffffff160217905550620006c4565b82600a81019282156200066b579160200282015b828111156200066a5782518260006101000a81548173ffffffffffffffffffffffffffffffffffffffff021916908373ffffffffffffffffffffffffffffffffffffffff1602179055509160200191906001019062000610565b5b5090506200067a91906200067e565b5090565b620006c191905b80821115620006bd57600081816101000a81549073ffffffffffffffffffffffffffffffffffffffff02191690555060010162000685565b5090565b90565b61271e80620006d46000396000f3fe608060405234801561001057600080fd5b50600436106100f55760003560e01c80636f0e823d11610097578063a02be77111610066578063a02be77114610a9b578063bfda4a4914610b74578063e65cd6e314610c22578063fdacd57614610c70576100f5565b80636f0e823d146107985780637217e0b9146107de57806380fce6a514610a035780638da5cb5b14610a51576100f5565b80633b37986e116100d35780633b37986e146106b4578063445df0ac146106f65780635c97f4a2146107145780636931b3ae1461077a576100f5565b80630900f010146100fa5780632a2840851461013e5780633806e63e14610470575b600080fd5b61013c6004803603602081101561011057600080fd5b81019080803573ffffffffffffffffffffffffffffffffffffffff169060200190929190505050610c9e565b005b61045a600480360360c081101561015457600080fd5b810190808035906020019064010000000081111561017157600080fd5b82018360208201111561018357600080fd5b803590602001918460018302840111640100000000831117156101a557600080fd5b91908080601f016020809104026020016040519081016040528093929190818152602001838380828437600081840152601f19601f8201169050808301925050505050505091929192908035906020019064010000000081111561020857600080fd5b82018360208201111561021a57600080fd5b8035906020019184600183028401116401000000008311171561023c57600080fd5b91908080601f016020809104026020016040519081016040528093929190818152602001838380828437600081840152601f19601f8201169050808301925050505050505091929192908035906020019064010000000081111561029f57600080fd5b8201836020820111156102b157600080fd5b803590602001918460018302840111640100000000831117156102d357600080fd5b91908080601f016020809104026020016040519081016040528093929190818152602001838380828437600081840152601f19601f820116905080830192505050505050509192919290803590602001909291908035906020019064010000000081111561034057600080fd5b82018360208201111561035257600080fd5b8035906020019184602083028401116401000000008311171561037457600080fd5b919080806020026020016040519081016040528093929190818152602001838360200280828437600081840152601f19601f820116905080830192505050505050509192919290803590602001906401000000008111156103d457600080fd5b8201836020820111156103e657600080fd5b8035906020019184600183028401116401000000008311171561040857600080fd5b91908080601f016020809104026020016040519081016040528093929190818152602001838380828437600081840152601f19601f820116905080830192505050505050509192919290505050610d6a565b6040518082815260200191505060405180910390f35b6104a66004803603604081101561048657600080fd5b81019080803590602001909291908035906020019092919050505061136b565b60405180806020018781526020018060200180602001806020018060200186810386528c818151815260200191508051906020019060200280838360005b838110156104ff5780820151818401526020810190506104e4565b5050505090500186810385528a818151815260200191508051906020019080838360005b8381101561053e578082015181840152602081019050610523565b50505050905090810190601f16801561056b5780820380516001836020036101000a031916815260200191505b50868103845289818151815260200191508051906020019080838360005b838110156105a4578082015181840152602081019050610589565b50505050905090810190601f1680156105d15780820380516001836020036101000a031916815260200191505b50868103835288818151815260200191508051906020019080838360005b8381101561060a5780820151818401526020810190506105ef565b50505050905090810190601f1680156106375780820380516001836020036101000a031916815260200191505b50868103825287818151815260200191508051906020019080838360005b83811015610670578082015181840152602081019050610655565b50505050905090810190601f16801561069d5780820380516001836020036101000a031916815260200191505b509b50505050505050505050505060405180910390f35b6106e0600480360360208110156106ca57600080fd5b81019080803590602001909291905050506116ff565b6040518082815260200191505060405180910390f35b6106fe611717565b6040518082815260200191505060405180910390f35b6107606004803603604081101561072a57600080fd5b81019080803573ffffffffffffffffffffffffffffffffffffffff1690602001909291908035906020019092919050505061171d565b604051808215151515815260200191505060405180910390f35b610782611856565b6040518082815260200191505060405180910390f35b6107c4600480360360208110156107ae57600080fd5b810190808035906020019092919050505061185c565b604051808215151515815260200191505060405180910390f35b61080a600480360360208110156107f457600080fd5b8101908080359060200190929190505050611891565b604051808773ffffffffffffffffffffffffffffffffffffffff1673ffffffffffffffffffffffffffffffffffffffff16815260200186815260200180602001806020018060200180602001858103855289818151815260200191508051906020019080838360005b8381101561088e578082015181840152602081019050610873565b50505050905090810190601f1680156108bb5780820380516001836020036101000a031916815260200191505b50858103845288818151815260200191508051906020019080838360005b838110156108f45780820151818401526020810190506108d9565b50505050905090810190601f1680156109215780820380516001836020036101000a031916815260200191505b50858103835287818151815260200191508051906020019080838360005b8381101561095a57808201518184015260208101905061093f565b50505050905090810190601f1680156109875780820380516001836020036101000a031916815260200191505b50858103825286818151815260200191508051906020019080838360005b838110156109c05780820151818401526020810190506109a5565b50505050905090810190601f1680156109ed5780820380516001836020036101000a031916815260200191505b509a505050505050505050505060405180910390f35b610a4f60048036036040811015610a1957600080fd5b81019080803573ffffffffffffffffffffffffffffffffffffffff16906020019092919080359060200190929190505050611b4d565b005b610a59611d4c565b604051808273ffffffffffffffffffffffffffffffffffffffff1673ffffffffffffffffffffffffffffffffffffffff16815260200191505060405180910390f35b610b5e60048036036040811015610ab157600080fd5b8101908080359060200190640100000000811115610ace57600080fd5b820183602082011115610ae057600080fd5b80359060200191846001830284011164010000000083111715610b0257600080fd5b91908080601f016020809104026020016040519081016040528093929190818152602001838380828437600081840152601f19601f82011690508083019250505050505050919291929080359060200190929190505050611d72565b6040518082815260200191505060405180910390f35b610ba060048036036020811015610b8a57600080fd5b8101908080359060200190929190505050611feb565b6040518080602001838152602001828103825284818151815260200191508051906020019080838360005b83811015610be6578082015181840152602081019050610bcb565b50505050905090810190601f168015610c135780820380516001836020036101000a031916815260200191505b50935050505060405180910390f35b610c6e60048036036040811015610c3857600080fd5b81019080803573ffffffffffffffffffffffffffffffffffffffff169060200190929190803590602001909291905050506120b4565b005b610c9c60048036036020811015610c8657600080fd5b81019080803590602001909291905050506123e1565b005b6000809054906101000a900473ffffffffffffffffffffffffffffffffffffffff1673ffffffffffffffffffffffffffffffffffffffff163373ffffffffffffffffffffffffffffffffffffffff161415610d675760008190508073ffffffffffffffffffffffffffffffffffffffff1663fdacd5766001546040518263ffffffff1660e01b815260040180828152602001915050600060405180830381600087803b158015610d4d57600080fd5b505af1158015610d61573d6000803e3d6000fd5b50505050505b50565b6000600e6000600a8110610d7a57fe5b0160009054906101000a900473ffffffffffffffffffffffffffffffffffffffff1673ffffffffffffffffffffffffffffffffffffffff163373ffffffffffffffffffffffffffffffffffffffff161461136157600060405180807f737570706c6965720000000000000000000000000000000000000000000000008152506008019050604051809103902083805190602001201415610e1957600190505b60405180807f6d616e7566616374757265720000000000000000000000000000000000000000815250600c019050604051809103902083805190602001201415610e6257600290505b60405180807f6469737472696275746572000000000000000000000000000000000000000000815250600b019050604051809103902083805190602001201415610eab57600390505b60405180807f72657461696c65720000000000000000000000000000000000000000000000008152506008019050604051809103902083805190602001201415610ef457600490505b610efe338261171d565b610f53576040517f08c379a00000000000000000000000000000000000000000000000000000000081526004018080602001828103825260298152602001806126a46029913960400191505060405180910390fd5b60008090505b8451811015610ffd57610f7e858281518110610f7157fe5b602002602001015161185c565b610ff0576040517f08c379a000000000000000000000000000000000000000000000000000000000815260040180806020018281038252601a8152602001807f417070656e64206f6e6c79206f6e206c6173742073746570732e00000000000081525060200191505060405180910390fd5b8080600101915050610f59565b50600080905060008090505b855181101561105957866018600088848151811061102357fe5b6020026020010151815260200190815260200160002060010154141561104c5760019150611059565b8080600101915050611009565b50806110e9576000601a600088815260200190815260200160002054146110e8576040517f08c379a00000000000000000000000000000000000000000000000000000000081526004018080602001828103825260138152602001807f496e7374616e6365206e6f742076616c69642e0000000000000000000000000081525060200191505060405180910390fd5b5b6040518060e001604052803373ffffffffffffffffffffffffffffffffffffffff1681526020018781526020018681526020018a81526020018981526020018881526020018581525060186000601954815260200190815260200160002060008201518160000160006101000a81548173ffffffffffffffffffffffffffffffffffffffff021916908373ffffffffffffffffffffffffffffffffffffffff1602179055506020820151816001015560408201518160020190805190602001906111b4929190612441565b5060608201518160030190805190602001906111d192919061248e565b5060808201518160040190805190602001906111ee92919061248e565b5060a082015181600501908051906020019061120b92919061248e565b5060c082015181600601908051906020019061122892919061248e565b5090505060006019549050600160196000828254019250508190555080601a600089815260200190815260200160002081905550866018600089815260200190815260200160002060010181905550896018600089815260200190815260200160002060030190805190602001906112a192919061250e565b50886018600089815260200190815260200160002060040190805190602001906112cc92919061250e565b50876018600089815260200190815260200160002060050190805190602001906112f792919061250e565b508460186000898152602001908152602001600020600601908051906020019061132292919061250e565b507faaf69ffc30ad71be68c47171203a5feb746c3881d2dc180dbbac3893a57c6a44816040518082815260200191505060405180910390a18093505050505b9695505050505050565b60606000606080606080600088146116f4576000889050600081106116f257601860008a81526020019081526020016000206002016018600060018b038152602001908152602001600020600101546018600060018c0381526020019081526020016000206003016018600060018d0381526020019081526020016000206004016018600060018e0381526020019081526020016000206005016018600060018f0381526020019081526020016000206006018580548060200260200160405190810160405280929190818152602001828054801561146957602002820191906000526020600020905b815481526020019060010190808311611455575b50505050509550838054600181600116156101000203166002900480601f0160208091040260200160405190810160405280929190818152602001828054600181600116156101000203166002900480156115055780601f106114da57610100808354040283529160200191611505565b820191906000526020600020905b8154815290600101906020018083116114e857829003601f168201915b50505050509350828054600181600116156101000203166002900480601f0160208091040260200160405190810160405280929190818152602001828054600181600116156101000203166002900480156115a15780601f10611576576101008083540402835291602001916115a1565b820191906000526020600020905b81548152906001019060200180831161158457829003601f168201915b50505050509250818054600181600116156101000203166002900480601f01602080910402602001604051908101604052809291908181526020018280546001816001161561010002031660029004801561163d5780601f106116125761010080835404028352916020019161163d565b820191906000526020600020905b81548152906001019060200180831161162057829003601f168201915b50505050509150808054600181600116156101000203166002900480601f0160208091040260200160405190810160405280929190818152602001828054600181600116156101000203166002900480156116d95780601f106116ae576101008083540402835291602001916116d9565b820191906000526020600020905b8154815290600101906020018083116116bc57829003601f168201915b50505050509050965096509650965096509650506116f5565b505b5b9295509295509295565b601a6020528060005260406000206000915090505481565b60015481565b6000600d8054905082106117345760009050611850565b6060600d838154811061174357fe5b90600052602060002090600302016002018054806020026020016040519081016040528092919081815260200182805480156117d457602002820191906000526020600020905b8160009054906101000a900473ffffffffffffffffffffffffffffffffffffffff1673ffffffffffffffffffffffffffffffffffffffff168152602001906001019080831161178a575b5050505050905060008090505b8151811015611849578473ffffffffffffffffffffffffffffffffffffffff1682828151811061180d57fe5b602002602001015173ffffffffffffffffffffffffffffffffffffffff16141561183c57600192505050611850565b80806001019150506117e1565b5060009150505b92915050565b60195481565b600081601a60006018600086815260200190815260200160002060010154815260200190815260200160002054149050919050565b60186020528060005260406000206000915090508060000160009054906101000a900473ffffffffffffffffffffffffffffffffffffffff1690806001015490806003018054600181600116156101000203166002900480601f0160208091040260200160405190810160405280929190818152602001828054600181600116156101000203166002900480156119695780601f1061193e57610100808354040283529160200191611969565b820191906000526020600020905b81548152906001019060200180831161194c57829003601f168201915b505050505090806004018054600181600116156101000203166002900480601f016020809104026020016040519081016040528092919081815260200182805460018160011615610100020316600290048015611a075780601f106119dc57610100808354040283529160200191611a07565b820191906000526020600020905b8154815290600101906020018083116119ea57829003601f168201915b505050505090806005018054600181600116156101000203166002900480601f016020809104026020016040519081016040528092919081815260200182805460018160011615610100020316600290048015611aa55780601f10611a7a57610100808354040283529160200191611aa5565b820191906000526020600020905b815481529060010190602001808311611a8857829003601f168201915b505050505090806006018054600181600116156101000203166002900480601f016020809104026020016040519081016040528092919081815260200182805460018160011615610100020316600290048015611b435780601f10611b1857610100808354040283529160200191611b43565b820191906000526020600020905b815481529060010190602001808311611b2657829003601f168201915b5050505050905086565b600d805490508110611bc7576040517f08c379a00000000000000000000000000000000000000000000000000000000081526004018080602001828103825260138152602001807f526f6c6520646f65736e27742065786973742e0000000000000000000000000081525060200191505060405180910390fd5b611bef33600d8381548110611bd857fe5b90600052602060002090600302016001015461171d565b611c44576040517f08c379a00000000000000000000000000000000000000000000000000000000081526004018080602001828103825260238152602001806126816023913960400191505060405180910390fd5b60001515611c52838361171d565b15151415611d4857600d8181548110611c6757fe5b90600052602060002090600302016002018290806001815401808255809150509060018203906000526020600020016000909192909190916101000a81548173ffffffffffffffffffffffffffffffffffffffff021916908373ffffffffffffffffffffffffffffffffffffffff160217905550507fd81f2841f8b3997e1937995d307db36db75c385165bbad7916db26732d8ccb178282604051808373ffffffffffffffffffffffffffffffffffffffff1673ffffffffffffffffffffffffffffffffffffffff1681526020018281526020019250505060405180910390a15b5050565b600260009054906101000a900473ffffffffffffffffffffffffffffffffffffffff1681565b6000600d80549050821115611def576040517f08c379a00000000000000000000000000000000000000000000000000000000081526004018080602001828103825260198152602001807f41646d696e20726f6c6520646f65736e27742065786973742e0000000000000081525060200191505060405180910390fd5b60006001600d60405180606001604052808781526020018681526020016000604051908082528060200260200182016040528015611e3c5781602001602082028038833980820191505090505b50815250908060018154018082558091505090600182039060005260206000209060030201600090919290919091506000820151816000019080519060200190611e8792919061248e565b50602082015181600101556040820151816002019080519060200190611eae92919061258e565b5050500390507f5ae7bf8c4c39be741ec8e27386e1453106504ca4b4351e28065a5ca97415d430816040518082815260200191505060405180910390a180831415611fe157600d8181548110611f0057fe5b90600052602060002090600302016002013390806001815401808255809150509060018203906000526020600020016000909192909190916101000a81548173ffffffffffffffffffffffffffffffffffffffff021916908373ffffffffffffffffffffffffffffffffffffffff160217905550507fd81f2841f8b3997e1937995d307db36db75c385165bbad7916db26732d8ccb173382604051808373ffffffffffffffffffffffffffffffffffffffff1673ffffffffffffffffffffffffffffffffffffffff1681526020018281526020019250505060405180910390a15b8091505092915050565b600d8181548110611ff857fe5b9060005260206000209060030201600091509050806000018054600181600116156101000203166002900480601f0160208091040260200160405190810160405280929190818152602001828054600181600116156101000203166002900480156120a45780601f10612079576101008083540402835291602001916120a4565b820191906000526020600020905b81548152906001019060200180831161208757829003601f168201915b5050505050908060010154905082565b600d80549050811061212e576040517f08c379a00000000000000000000000000000000000000000000000000000000081526004018080602001828103825260138152602001807f526f6c6520646f65736e27742065786973742e0000000000000000000000000081525060200191505060405180910390fd5b61215633600d838154811061213f57fe5b90600052602060002090600302016001015461171d565b6121ab576040517f08c379a00000000000000000000000000000000000000000000000000000000081526004018080602001828103825260268152602001806126cd6026913960400191505060405180910390fd5b6060600d82815481106121ba57fe5b906000526020600020906003020160020180548060200260200160405190810160405280929190818152602001828054801561224b57602002820191906000526020600020905b8160009054906101000a900473ffffffffffffffffffffffffffffffffffffffff1673ffffffffffffffffffffffffffffffffffffffff1681526020019060010190808311612201575b5050505050905060008090505b81518110156123db578373ffffffffffffffffffffffffffffffffffffffff1682828151811061228457fe5b602002602001015173ffffffffffffffffffffffffffffffffffffffff1614156123ce57816001835103815181106122b857fe5b60200260200101518282815181106122cc57fe5b602002602001019073ffffffffffffffffffffffffffffffffffffffff16908173ffffffffffffffffffffffffffffffffffffffff1681525050600d838154811061231357fe5b906000526020600020906003020160020180548061232d57fe5b6001900381819060005260206000200160006101000a81549073ffffffffffffffffffffffffffffffffffffffff021916905590557f18dd68c3b9a992261fefcaa58c659f0a628d54692027be4c0662c2365fbb819a8484604051808373ffffffffffffffffffffffffffffffffffffffff1673ffffffffffffffffffffffffffffffffffffffff1681526020018281526020019250505060405180910390a15b8080600101915050612258565b50505050565b6000809054906101000a900473ffffffffffffffffffffffffffffffffffffffff1673ffffffffffffffffffffffffffffffffffffffff163373ffffffffffffffffffffffffffffffffffffffff16141561243e57806001819055505b50565b82805482825590600052602060002090810192821561247d579160200282015b8281111561247c578251825591602001919060010190612461565b5b50905061248a9190612618565b5090565b828054600181600116156101000203166002900490600052602060002090601f016020900481019282601f106124cf57805160ff19168380011785556124fd565b828001600101855582156124fd579182015b828111156124fc5782518255916020019190600101906124e1565b5b50905061250a9190612618565b5090565b828054600181600116156101000203166002900490600052602060002090601f016020900481019282601f1061254f57805160ff191683800117855561257d565b8280016001018555821561257d579182015b8281111561257c578251825591602001919060010190612561565b5b50905061258a9190612618565b5090565b828054828255906000526020600020908101928215612607579160200282015b828111156126065782518260006101000a81548173ffffffffffffffffffffffffffffffffffffffff021916908373ffffffffffffffffffffffffffffffffffffffff160217905550916020019190600101906125ae565b5b509050612614919061263d565b5090565b61263a91905b8082111561263657600081600090555060010161261e565b5090565b90565b61267d91905b8082111561267957600081816101000a81549073ffffffffffffffffffffffffffffffffffffffff021916905550600101612643565b5090565b9056fe55736572206e6f7420617574686f72697a656420746f2061646420626561726572732e20596f7520646f6e277420746865207065726d697373696f6e20746f206164642064657461696c732055736572206e6f7420617574686f72697a656420746f2072656d6f766520626561726572732ea165627a7a72305820b4fa7c3c4258a493b8473b1ec20f2881284e0d220d018f98aefbedaf555a6f660029",
  "source": "pragma solidity ^0.5.0;\r\n\r\nimport \"./Migrations.sol\";\r\nimport \"./admin.sol\";\r\nimport \"./right.sol\";\r\n\r\n/**\r\n* @title Supply Chain tracking\r\n* @author Michael Adrah\r\n* @notice Implements a basic compositional supply chain contract.\r\n*/\r\ncontract supplyChain is Migrations,admin {\r\n   event StepCreated(uint256 step);\r\n    /**  \r\n        * @notice Supply chain step data. By chaining these and not \r\n        * allowing them to be modified afterwards we create an Acyclic\r\n        * Directed Graph.\r\n        * @dev The step id is not stored in the Step itself because it\r\n        * is always previously available to whoever looks for the step.\r\n        * @param creator The creator of this step.\r\n        * @param product_id The id of the object that this step refers to.\r\n        * @param precedents The step ids preceding this one in the\r\n        * supply chain.\r\n    */\r\n   struct Step {\r\n       address creator;\r\n       uint256 product_id;\r\n       uint256[] precedents;\r\n       string name_of_company;\r\n       string name_of_product;\r\n       string quantity_of_product;\r\n       string stage;\r\n\r\n   }\r\n   /**\r\n    * @notice All steps are accessible through a mapping keyed by\r\n    * the step ids. Recursive structs are not supported in solidity.\r\n    */\r\n   mapping(uint256 => Step) public steps;\r\n   /**\r\n    * @notice Step counter\r\n    */\r\n   uint256 public totalSteps;\r\n   /**\r\n    * @notice Mapping from product_id id to the last step in the lifecycle \r\n    * of that product_id.\r\n    */\r\n   mapping(uint256 => uint256) public lastSteps;\r\n   /**\r\n    * @notice A method to create a new supply chain step. The \r\n    * msg.sender is recorded as the creator of the step, which might\r\n    * possibly mean creator of the underlying asset as well.\r\n    * @param _product_id The product_id id that this step is for. This must be\r\n    * either the product_id of one of the steps in _precedents, or an id\r\n    * that has never been used before.\r\n    * @param _precedents An array of the step ids for steps\r\n    * considered to be predecessors to this one. Often this would \r\n    * just mean that the event refers to the same asset as the event \r\n    * pointed to, but for other steps it could point to other\r\n    * different assets.\r\n    * @return The step id of the step created.\r\n    */\r\n   function newStep(string memory _name_of_company, string memory _name_of_product,\r\n                    string memory _quantity_of_product, uint256 _product_id,\r\n                    uint256[] memory _precedents, string memory _stage ) public rightOnly()\r\n\r\n        returns(uint256)\r\n   {\r\n    //    if (keccak256(bytes(_stage)) != keccak256(\"supplier\") || keccak256(\"manufacturer\") || keccak256(\"distributor\") || keccak256(\"retailer\")){\r\n    //        string memory msg1;\r\n    //       msg1 = \"CHECK THE SPELLING .......It should be supplier,manufacturer,distributor or retailer\";\r\n    //       return msg1;\r\n    //    }\r\n\r\n       uint stageRole;\r\n       if(keccak256(bytes(_stage)) == keccak256(\"supplier\") ){stageRole = 1;}\r\n       if(keccak256(bytes(_stage)) == keccak256(\"manufacturer\") ){stageRole = 2;}\r\n       if(keccak256(bytes(_stage)) == keccak256(\"distributer\") ){stageRole = 3;}\r\n       if(keccak256(bytes(_stage)) == keccak256(\"retailer\") ){stageRole = 4;}\r\n\r\n       require(hasRole(msg.sender,stageRole),\" You don't the permission to add details \");\r\n       for (uint i = 0; i < _precedents.length; i++){\r\n           require(isLastStep(_precedents[i]),\"Append only on last steps.\");\r\n       }\r\n       bool repeatInstance = false;\r\n       for (uint i = 0; i < _precedents.length; i++){\r\n           if (steps[_precedents[i]].product_id == _product_id) {\r\n               repeatInstance = true;\r\n               break;\r\n           }\r\n       }\r\n       if (!repeatInstance){\r\n           require(lastSteps[_product_id] == 0, \"Instance not valid.\");\r\n       }\r\n      \r\n       steps[totalSteps] = Step(\r\n           msg.sender,\r\n           _product_id,\r\n           _precedents,\r\n           _name_of_company,\r\n           _name_of_product,\r\n           _quantity_of_product,\r\n           _stage\r\n       );\r\n       uint256 step = totalSteps;\r\n       totalSteps += 1;\r\n       lastSteps[_product_id] = step;\r\n       steps[_product_id].product_id = _product_id;\r\n       steps[_product_id].name_of_company = _name_of_company;\r\n       steps[_product_id].name_of_product = _name_of_product;\r\n       steps[_product_id].quantity_of_product = _quantity_of_product;\r\n       steps[_product_id].stage = _stage;\r\n       emit StepCreated(step);\r\n       return step;\r\n   }\r\n   /**\r\n    * @notice A method to verify whether a step is the last of an \r\n    * product_id.\r\n    * @param _step The step id of the step to verify.\r\n    * @return Whether a step is the last of an product_id.\r\n    */\r\n   function isLastStep(uint256 _step)\r\n       public\r\n       view\r\n       returns(bool)\r\n   {\r\n       return lastSteps[steps[_step].product_id] == _step;\r\n   }\r\n   /**\r\n    * @notice A method to retrieve the precedents of a step.\r\n    * @param _step The step id of the step to retrieve precedents\r\n    * for.\r\n    * @return An array with the step ids of the precedent steps.\r\n    */\r\n//    function getprecedents(uint256 _step, uint _product_id)\r\n//        public\r\n//        view\r\n//        returns(uint256[] memory, uint256, string memory ,string memory, string memory, string memory  )\r\n//    {\r\n//        return( steps[_step].precedents, steps[_product_id - 1].product_id,\r\n//        steps[_product_id - 1].name_of_company,steps[_product_id - 1].name_of_product,\r\n//        steps[_product_id - 1].quantity_of_product, steps[_product_id - 1].stage);\r\n//    }\r\n// }\r\nfunction getprecedents(uint256 _step, uint _product_id)\r\n       public\r\n       view\r\n       returns(uint256[] memory, uint256, string memory ,string memory, string memory, string memory  )\r\n   {   if(_step != 0 ){\r\n            for(uint256 i = _step; i >= 0; i--){\r\n                return( steps[_step].precedents, steps[_product_id - 1].product_id,\r\n                steps[_product_id - 1].name_of_company,steps[_product_id - 1].name_of_product,\r\n                steps[_product_id - 1].quantity_of_product, steps[_product_id - 1].stage);\r\n                _product_id - 1;\r\n        }\r\n     }\r\n   }\r\n}",
  "sourcePath": "C:/Users/MIQI/Desktop/realSupplyRemixed/contracts/supplyChain.sol",
  "compiler": {
    "name": "solc",
    "version": "0.5.8+commit.23d335f2.Emscripten.clang"
  },
  "schemaVersion": "3.0.11",
  "updatedAt": "2019-07-23T16:38:10.777Z",
  "devdoc": {
    "author": "Michael Adrah\r",
    "methods": {
      "addBearer(address,uint256)": {
        "params": {
          "_account": "The address to add as a bearer.\r",
          "_role": "The role to add the bearer to.\r"
        }
      },
      "getprecedents(uint256,uint256)": {
        "params": {
          "_step": "The step id of the step to retrieve precedents\r for.\r"
        },
        "return": "An array with the step ids of the precedent steps.\r"
      },
      "hasRole(address,uint256)": {
        "params": {
          "_account": "The account to verify.\r",
          "_role": "The role to look into.\r"
        },
        "return": "Whether the account is a bearer of the role.\r"
      },
      "isLastStep(uint256)": {
        "params": {
          "_step": "The step id of the step to verify.\r"
        },
        "return": "Whether a step is the last of an product_id.\r"
      },
      "newStep(string,string,string,uint256,uint256[],string)": {
        "params": {
          "_precedents": "An array of the step ids for steps\r considered to be predecessors to this one. Often this would \r just mean that the event refers to the same asset as the event \r pointed to, but for other steps it could point to other\r different assets.\r",
          "_product_id": "The product_id id that this step is for. This must be\r either the product_id of one of the steps in _precedents, or an id\r that has never been used before.\r"
        },
        "return": "The step id of the step created.\r"
      },
      "removeBearer(address,uint256)": {
        "params": {
          "_account": "The address to remove as a bearer.\r",
          "_role": "The role to remove the bearer from.\r"
        }
      }
    },
    "title": "Supply Chain tracking\r"
  },
  "userdoc": {
    "methods": {
      "addBearer(address,uint256)": {
        "notice": "Add a bearer to a role\r"
      },
      "getprecedents(uint256,uint256)": {
        "notice": "A method to retrieve the precedents of a step.\r"
      },
      "hasRole(address,uint256)": {
        "notice": "Verify whether an address is a bearer of a role\r"
      },
      "isLastStep(uint256)": {
        "notice": "A method to verify whether a step is the last of an \r product_id.\r"
      },
      "newStep(string,string,string,uint256,uint256[],string)": {
        "notice": "A method to create a new supply chain step. The \r msg.sender is recorded as the creator of the step, which might\r possibly mean creator of the underlying asset as well.\r"
      },
      "removeBearer(address,uint256)": {
        "notice": "Remove a bearer from a role\r"
      }
    },
    "notice": "Implements a basic compositional supply chain contract.\r"
  }
}